:020000040800F2
:10000000284600205D0200088B200008FD1B000828
:1000100089200008E1040008A12900080000000070
:100020000000000000000000000000009D0100082A
:10003000E304000800000000F90100082123000883
:1000400077020008770200087702000877020008AC
:10005000770200087702000877020008770200089C
:10006000770200087702000877020008770200088C
:10007000770200087702000877020008770200087C
:10008000770200087702000877020008770200086C
:10009000770200087702000877020008770200085C
:1000A000770200087702000877020008770200084C
:1000B000ED23000877020008F92300087702000802
:1000C000770200087702000877020008770200082C
:1000D00077020008952900087702000877020008D7
:1000E000770200087702000877020008770200080C
:1000F00077020008770200087702000877020008FC
:1001000077020008770200087702000877020008EB
:10011000770200087702000877020008052400082B
:1001200077020008770200087702000877020008CB
:1001300077020008770200087702000877020008BB
:1001400077020008770200087702000877020008AB
:10015000770200087702000877020008770200089B
:10016000770200087702000877020008770200088B
:1001700077020008770200087702000800000000FC
:100180007702000877020008DFF80CD000F002F9CF
:1001900000480047C12B0008284600202C4B196856
:1001A0000868B0E8F04F80F30988BFF36F8F4FF015
:1001B000000080F3118870470000000008480068C4
:1001C000006880F308884FF0000080F3148862B65E
:1001D00061B6BFF34F8FBFF36F8F00DF00BF00BF6B
:1001E00008ED00E0DFF80C00016841F470010160E7
:1001F000704700BF88ED00E0EFF30980BFF36F8F19
:10020000134B1A681EF0100F08BF20ED108A20E96A
:10021000F04F106009B44FF0500080F31188BFF325
:100220004F8FBFF36F8F03F079F84FF0000080F32A
:10023000118809BC19680868B0E8F04F1EF0100F6B
:1002400008BFB0EC108A80F30988BFF36F8F704746
:100250002C000020EFF3058070470000064880471F
:1002600006480047FEE7FEE7FEE7FEE7FEE7FEE79B
:10027000FEE7FEE7FEE7FEE7DD2300088901000850
:100280002DE9F05F0546002092469B4688460646CB
:10029000814640241BE0284641464746224600F05E
:1002A00069F853465A46C01A914110D31146184670
:1002B000224600F050F82D1A67EB01084F462246FF
:1002C0000120002100F047F817EB00094E41201EE5
:1002D000A4F10104DFDC484631462A464346BDE826
:1002E000F09F40EA01039B0703D009E008C9121FF1
:1002F00008C0042AFAD203E011F8013B00F8013BE0
:10030000521EF9D27047D2B201E000F8012B491E0B
:10031000FBD270470022F6E710B513460A460446A2
:100320001946FFF7F0FF204610BD30B50B460146D9
:1003300000202022012409E021FA02F59D4205D384
:1003400003FA02F5491B04FA02F52844151EA2F12E
:100350000102F1DC30BD202A04DB203A00FA02F170
:10036000002070479140C2F1200320FA03F31943A3
:1003700090407047202A04DB203A21FA02F0002145
:10038000704721FA02F3D040C2F1200291400843A5
:1003900019467047064C074D06E0E06840F001033F
:1003A00094E8070098471034AC42F6D3FFF7F0FE0C
:1003B000E437000804380008464910B54A6822F4BA
:1003C00040324A604A6843681A434A6001684A6892
:1003D00022F480724A6001684A68036942EA032293
:1003E0004A6001684A6822F040724A6001684A68BF
:1003F00083681A434A6001688A6822F400628A604E
:1004000001688A68C3681A438A60816A6FF0706203
:10041000D14201688A6822F070628A6001688A6845
:100420000CD0836A1A438A6001688A6822F04052BD
:100430008A6001688A68C36A1A4301E022F0405268
:100440008A6001688A6822F002028A6001688A680C
:10045000037E42EA43028A6090F820100029016876
:100460004A680FD042F400624A6001684A6822F488
:1004700060424A6001684A68174C436A04EB4333A0
:100480001A4301E022F400624A600168CA6A22F459
:100490007002CA620168CA6A838B104C04EB035372
:1004A0001A43CA6201688A6822F400728A6001688D
:1004B0008A6890F8303042EA43228A6001688A688C
:1004C00022F480628A6001688A68406942EA80207A
:1004D000886010BD0023014000E0FFFF0000F0FF36
:1004E000FEE7704772B6FEE778B50024009490F8F6
:1004F0003C20012A19D0012280F83C200A680723F9
:100500000568092A13D9EE680A3A02EB42029340C1
:100510009E43EE600B788A680A3B03EB43039A40E4
:100520000368DD682A43DA6010E0022078BD2E6996
:1005300002EB420293409E432E610B788A6803EBE4
:1005400043039A4003681D692A431A614A681F23BE
:10055000072A13D205686E6B521E02EB820293408B
:100560009E436E630B790A885B1E92B203EB830392
:100570009A4003685D6B2A435A6327E005680D2A99
:1005800012D22E6BD21F02EB820293409E432E6347
:100590000B790A88DB1F92B203EB83039A4003684E
:1005A0001D6B2A431A6311E0EE6A0D3A02EB8202D8
:1005B00093409E43EE620B790A880D3B92B203EBA7
:1005C00083039A400368DD6A2A43DA62164B0568A2
:1005D000144A9D4206D10D68122D03D1556845F489
:1005E0008005556005689D4218D10B68102B01D01D
:1005F000112B13D1536843F4000353600968102989
:100600000CD10A490A4A0968B1FBF2F101EB8101F8
:10061000490000E0491E00910029FBD180F83C40D0
:10062000002078BD00230140002001402800002068
:1006300040420F0070B504004FF0000503D0206C5D
:10064000002610B107E0012070BD204600F01CF824
:10065000666484F83C60206CC00610D4206C20F4E2
:10066000885040F0020020642046FFF7A5FE666433
:10067000206C20F0020040F00100206400E0012521
:1006800084F83C60284670BD10B586B0044614213D
:100690006846FFF73FFE1149206888421CD1104888
:1006A0000021026842F480720260006800F48070E9
:1006B00005900B481438026842F00402026000689A
:1006C00000F004000590042000900320CDE9010112
:1006D0006946044800F076F806B010BD00200140DD
:1006E00044380240000802402DE9F0410446876D7D
:1006F00000F072F9064694F835000025022806D06D
:100700008020606584F834500120BDE8F0812068C5
:10071000016821F0160101602068416921F0800123
:100720004161206C08B9A06C20B12068016821F0FB
:10073000080101602068016821F0010101600CE0FE
:1007400000F04AF9801B052807D9202060650320A6
:1007500084F8350084F83450D7E720680068C00773
:10076000EED194F85C103F208840B860012084F8F6
:10077000350084F834500020C7E790F8351002297E
:1007800003D08021416501207047052180F8351094
:100790000068016821F0010101600020704700003D
:1007A00070B5044600F018F90546601C02D00448F4
:1007B0000078044400F010F9401BA042FAD370BD49
:1007C0001C0000202DE9F84FDFF8BCA10022012514
:1007D00003264FF00F090AF1040BAAF1040E00BF23
:1007E0000B6805FA02F42340A34270D10F7907F099
:1007F0000307012F01D0022F16D187684FEA420864
:1008000006FA08FC27EA0C07D1F80CC00CFA08FC21
:100810004CEA070CC0F808C04768A7430C79C4F33A
:10082000001494403C4344600C79E443A4070AD08C
:10083000C4684FEA420C06FA0CF7BC438F6807FA0B
:100840000CF72743C7600C7904F00304022C12D183
:10085000D40800EB840CDCF820405707FF0E09FA9F
:1008600007F824EA0804D1F8108008FA07F848EAE3
:100870000408CCF8208004684FEA420C06FA0CF712
:10088000BC430F7907F0030707FA0CF7274307600B
:100890004C6814F4403F70D03C4C276847F48047C4
:1008A0002760246822F0030704F480440094384C45
:1008B00007EB040CDCF8084897074FEA177809FAA9
:1008C00008F7BC43334FB84202D1002724E054E07C
:1008D000314FB84201D101271EE0304FB84201D15B
:1008E000022719E02E4FB84201D1032714E02D4F03
:1008F000B84201D104270FE02B4FB84201D10527A0
:100900000AE02A4FB84201D1062705E0284FB84235
:1009100001D1072700E0082707FA08F72743CCF89A
:100920000878DAF800405746D1F804C09C435FEAE3
:10093000CC2C00D51C433C60DBF800405F46D1F86E
:1009400004C09C435FEA8C2C00D51C433C60DEF85D
:1009500000407746D1F804C09C435FEA8C3C00D548
:100960001C433C60084F083F3C68D1F804C09C43DE
:100970005FEACC3C00D51C433C60521C102AFFF4BB
:100980002FAFBDE8F88F0000083C0140443802401A
:100990000030014000000240000402400008024014
:1009A000000C0240001002400014024000180240F7
:1009B000001C02400069084000D0012070474269D5
:1009C00021EA02030A4043EA0241816170470AB109
:1009D000816170470904FBE70148806870470000A7
:1009E0001C00002002488168027811448160704731
:1009F0001C0000200B4810B5016841F40071016033
:100A0000016841F480610160016841F48071016016
:100A1000032000F09FF80F2000F006F800F050F8D7
:100A2000002010BD003C024030B505461F4887B08D
:100A30000024016841F020010160006806A900F06F
:100A40002000009001A800F031F90498A8B100F04E
:100A50004DF940001649174AB0FBF1F11648491EFE
:100A6000026040F2E732C0E90324C0E90114846166
:100A700000F08CFB040003D015E000F037F9E9E743
:100A80000D4800F0E1FB04000DD1372000F034F8F0
:100A9000102D07D200222946372000F03BF80748E6
:100AA000056000E0012407B0204630BD4038024018
:100AB00040420F0000140040F004002020000020FD
:100AC0000C4882B0016841F480410160006800F484
:100AD000804000900748001F016841F0805101608C
:100AE0000068002200F0805000900F21901E02B09C
:100AF00000F010B844380240002809DB00F01F0263
:100B0000012191404009800000F1E020C0F800116F
:100B100070470000F0B40E4B1B680C46C3F3022371
:100B2000C3F10705042D00D90425191D072901D299
:100B3000002300E0DB1E012606FA05F1491E2140D4
:100B400099409E40761E16403143F0BC01F03ABFFA
:100B50000CED00E0064900F0070208684FF6FF03BD
:100B6000184040EA0220034A104308607047000022
:100B70000CED00E00000FA052DE9F0470E460500F7
:100B800065D0DFF81481D8F80000F7B200F0070054
:100B9000B04207D288F80070D8F8000000F00700D3
:100BA000B04254D128683D4C810712D5400703D587
:100BB000206840F4E05020602878000703D52068C2
:100BC00040F4604020602068A96820F0F0000843ED
:100BD00020602878C0072DD030496868083901287E
:100BE00012D0022813D0032811D0096889070029E0
:100BF0002DDA216821F0030101432160FFF7ECFEAB
:100C0000814641F2883A0EE009688903EFE70968F6
:100C10008901ECE7FFF7E0FEA0EB0901514502D99D
:100C20000320BDE8F0872068696800F00C00B0EB95
:100C3000810FEFD1D8F80010404601F00701B14212
:100C400007D90770006800F00700B04201D001200A
:100C5000E7E72878400705D52068E96820F4E050E8
:100C6000084320602878000706D52068296920F409
:100C7000604040EAC100206000F058F82168084A4E
:100C8000C1F30311515CC84006490860064800687A
:100C9000FFF7CAFE0020C4E7003C024008380240CB
:100CA0007037000828000020200000200F2202607A
:100CB0000C4A136803F003034360136803F0F00366
:100CC0008360136803F4E053C36012684FF4E05389
:100CD00003EAD20202610448006800F007000860DD
:100CE0007047000008380240003C024004480549B3
:100CF00000680968044AC1F38221515CC84070470A
:100D000028000020083802408037000804480549C0
:100D100000680968044AC1F34231515CC840704719
:100D2000280000200838024080370008154810B518
:100D3000006810F00C02144813D04110042A0FD0A0
:100D4000082A0ED10F4C241F2268236802F03F02AC
:100D50005B0207D52068C0F38810A0FB010106E004
:100D6000084610BD2168C1F38811A1FB00010023D2
:100D7000FFF786FA2168C1F30141491C4900B0FB25
:100D8000F1F010BD083802400024F4002DE9F84FBE
:100D900004006ED02078DFF84C93C007A9F1040559
:100DA0004AD009F104000168C1F38101012908D08A
:100DB0000068C0F3810002280AD1D9F8000040027F
:100DC00006D52868800337D560680028E1D033E075
:100DD0006068B0F5803F10D0B0F5A02F286810D023
:100DE00020F480302860286820F480202860606823
:100DF000A8B1FFF7F1FD06460DE0286840F4803009
:100E0000F4E740F480202860F7E700BFFFF7E4FD37
:100E1000801B642873D828688003F7D50CE0FFF79F
:100E2000DBFD064605E000BFFFF7D6FD801B64280A
:100E3000F0D828688003F7D42078DFF8AC828007E8
:100E40004FF0000A3ED5A748001D016811F00C0FB5
:100E500008D00068C0F3810002280BD1D9F8000047
:100E6000400207D42868800716D5E068012800D121
:100E700012E033E1E068B8B10120C8F80000FFF7E4
:100E8000ABFD064605E000BFFFF7A6FD801B02286C
:100E9000C0D828688007F7D52868216920F0F800B5
:100EA00040EAC10028600DE0C8F800A0FFF794FDFB
:100EB000064604E0FFF790FD801B02281FD8286833
:100EC0008007F7D42078000722D5864F87486169CC
:100ED000703771B101210160FFF77EFD064604E025
:100EE000FFF77AFD801B022809D838688007F7D5FC
:100EF0000EE0C0F800A0FFF76FFD064605E082E0B7
:100F0000FFF76AFD801B02287DD838688007F7D478
:100F10002078400768D5DFF8CCB100270BF13C0BF7
:100F2000DBF80000C0000BD4DBF8001041F080516A
:100F3000CBF80010DBF80000012700F08050009093
:100F40006B4E3068C00510D4306840F4807030605B
:100F5000FFF742FD009005E0FFF73EFD0099401AC3
:100F6000022850D83068C005F6D55E4EA0686C36B1
:100F700001280FD00528306810D020F00100306023
:100F8000306820F004003060A068B8B1FFF724FD9D
:100F900000900FE0306840F00100F4E740F00400FA
:100FA0003060F7E7FFF718FD0099411A41F28830E9
:100FB000814266D830688007F4D50EE0FFF70CFD5B
:100FC000009007E0FFF708FD0099411A41F28830D0
:100FD000814256D830688007F4D42FB1DBF8001076
:100FE00021F08051CBF80010A069C8B33D49091D1C
:100FF0000968C1F3810102294AD00228504607D06E
:10100000C8F8600000E03CE0FFF7E6FC04463BE087
:101010004746C8F86000FFF7DFFC064605E000BF62
:10102000FFF7DAFC801B02282BD828688001F7D450
:10103000D4E907010843A16A2E4A490802EB01419D
:10104000626A41EA8211084394F82C1040EA016177
:10105000C9F8001001203866FFF7BEFC044606E020
:101060003EE000BFFFF7B8FC001B022809D8286843
:101070008001F7D534E000BFFFF7AEFC001B02286B
:1010800002D90320BDE8F88F28688001F4D427E056
:101090000128F7D0D9F80000E26900F480019142FC
:1010A0001CD1226A00F03F01914217D147F6C0716E
:1010B000626A0140B1EB821F10D1A26A4FF0FF3388
:1010C00000F4403103EB5202B1EB024F06D194F829
:1010D0002C1000F07060B0EB016F01D00120D1E75F
:1010E0000020CFE70438024000004742800E47420C
:1010F000007000400000FFFF7047704770B590F827
:101100003C20012A32D0012480F83C40022280F8A1
:101110003D2003685A689D6822F070060A683243D1
:101120005A60134B02689A4214D0B2F1804F11D02A
:10113000104B9A420ED0104B9A420BD00F4B9A4252
:1011400008D00F4B9A4205D00E4B9A4202D00E4B5C
:101150009A4204D1496825F080031943916080F8D0
:101160003D40002180F83C10084670BD022070BD53
:10117000000001400004004000080040000C004056
:1011800000040140004001400018004010B5040078
:1011900003D094F83D0010B107E0012010BD0020FD
:1011A00084F83C00204600F01FF8022084F83D003F
:1011B000211D206801F02CF9012084F8460084F8F4
:1011C0003E0084F83F0084F8400084F8410084F831
:1011D000420084F8430084F8440084F8450084F811
:1011E0003D00002010BD000008B501681448B1F1B1
:1011F000804F14D0134A914220D1016841F004017C
:1012000001600068002200F00400009005211E200B
:10121000FFF780FC1E20BDE80840FFF76DBC0168A9
:1012200041F0010101600068002200F0010000901F
:1012300005211C20FFF76EFC1C20ECE708BD000018
:10124000403802400008004090F83D10012901D0CC
:1012500001207047022180F83D100168CA6842F001
:101260000102CA6000681149884214D0B0F1804F71
:1012700011D00F4988420ED00E4988420BD00E493A
:10128000884208D00D49884205D00D49884202D0D5
:101290000C49884204D1816801F00701062903D076
:1012A000016841F001010160002070470000014029
:1012B0000004004000080040000C00400004014011
:1012C000004001400018004070B5044690F83C0012
:1012D0000025012817D0012684F83C60022084F8FC
:1012E0003D002068826822F0770222F47F4282600B
:1012F0000868502838D00DDC20284FD005DC90B38A
:10130000102811D14AE0022070BD302846D0402874
:101310000AD13BE060282FD070280DD0B0F5805F57
:1013200003D0B0F5005F12D0012584F83D600020A5
:1013300084F83C00284670BDCB68D1E901212068C3
:1013400001F0DFF82068816841F0770109E0CB689F
:10135000D1E90121206801F0D4F82068816841F4C6
:1013600080418160E1E719E0CA684968206801F0BE
:101370009DF95021206806E0CA684968206801F09C
:10138000A6F96021206801F0C6F8CEE7CA6849686E
:10139000206801F08BF940212068F4E722680146BB
:1013A0001046F0E770472DE9F04104460068C66832
:1013B00005694FF00007A90713D5B10711D5F91E2C
:1013C000016101202077206880698007204602D0D3
:1013D000FFF7E8FF04E000F0B1F8204600F043F921
:1013E0002777680716D5700714D521686FF00400B9
:1013F0000861022020772068806910F4407F204631
:1014000002D0FFF7CFFF04E000F098F8204600F08C
:101410002AF92777280715D5300713D521686FF0EB
:1014200008000861042020772068C06980072046F2
:1014300002D0FFF7B7FF04E000F080F8204600F08C
:1014400012F92777E80616D5F00614D521686FF053
:1014500010000861082020772068C06910F4407FE0
:10146000204602D0FFF79EFF04E000F067F8204618
:1014700000F0F9F82777E80708D0F00706D02168D0
:101480006FF001000861204600F052F9280608D5E7
:10149000300606D521686FF0800008612046FFF70E
:1014A0002BFE680608D5700606D521686FF040004F
:1014B0000861204600F046F9A8060AD5B00608D50E
:1014C00021686FF0200008612046BDE8F041FFF779
:1014D00014BEBDE8F081000070B586B0044614214A
:1014E0006846FEF717FF1249206888421ED111484E
:1014F0000025016841F0020101600068022400F04B
:10150000020005904020CDE900040B4E02940394A4
:10151000694630460494FFF755F920028DE8310002
:10152000CDE9035469463046FFF74CF906B070BD6B
:10153000000800403038024000040240704770B597
:10154000044690F83C0000260D4601280FD00120EB
:1015500084F83C006AB1042A1DD0082A2FD00C2A36
:101560003FD00126002084F83C00304670BD0220A8
:1015700070BD206800F0D8FF2068816941F0080143
:1015800081612068816921F004018161206881699D
:101590002A69114311E0206800F0F6FF2068816994
:1015A00041F4006181612068816921F48061816179
:1015B000206881692A6941EA02218161D2E72068B5
:1015C00001F018F82068C16941F00801C161206884
:1015D000C16921F00401C1612068C1692A69114310
:1015E00011E0206801F03AF82068C16941F4006117
:1015F000C1612068C16921F48061C1612068C1694D
:101600002A6941EA0221C161ACE710B5040003D0A8
:1016100094F83D0010B107E0012010BD002084F8CF
:101620003C00204600F01EF8022084F83D00211DF9
:10163000206800F0EDFE012084F8460084F83E00AA
:1016400084F83F0084F8400084F8410084F84200A8
:1016500084F8430084F8440084F8450084F83D0091
:10166000002010BD7047704710B50446022249B1F2
:1016700004290ED0082913D094F84100012816D06F
:10168000012010BD94F83E000128F9D184F83E20D5
:101690000FE094F83F000128F2D184F83F2008E0E1
:1016A00094F840000128EBD184F8402001E084F850
:1016B00041200122206800F017FF16492068164AD1
:1016C000884201D0904203D1436C43F40043436409
:1016D0002068884213D0B0F1804F10D00F49884263
:1016E0000DD00F4988420AD00E49884207D0904257
:1016F00005D00D49884202D00C49884204D1816846
:1017000001F00701062903D0016841F001010160E1
:10171000002010BD00000140000401400004004012
:1017200000080040000C004000400140001800404C
:1017300000680349884201D1FFF754B9704700009F
:10174000001400407047704770470000F8B501680A
:1017500004460868CA684B6910F00F0F4FF0000587
:1017600059D003F0010602F49077374365D0C107E2
:1017700005D0D10503D5616C41F0010161644107D9
:1017800005D5D90703D0616C41F00201616481077E
:1017900005D5D90703D0616C41F0040161640107EC
:1017A00007D502F02001314303D0616C41F00801FC
:1017B0006164616C00293AD0800604D5900602D598
:1017C000204600F0C5FF20684069616CC0F38010BE
:1017D000090700D460B3204600F093FF20684069F9
:1017E000400621D52068143050E8001F21F0400148
:1017F00040E80012002AF5D1E06BA8B16E490165FE
:10180000E06BFEF7BAFF002811D0E06B016D01B06C
:10181000BDE8F040084783060FD593060DD5204656
:10182000BDE8F84000F094BF2046FFF78DFFF8BDFB
:101830002046FFF789FF6564F8BD266B2023012E43
:101840007DD1C6067BD5D60679D508684868009054
:1018500048694FF00206400641D5E16B08684068D0
:101860000004000CE8D0A28D8242E5D9E085C86969
:10187000B0F5807F2DD020680C3050E8001F21F497
:10188000807140E80012002AF5D12068143050E839
:10189000001F21F0010140E80012002AF5D1206864
:1018A000143050E8001F21F0400140E80012002AE7
:1018B000F5D184F84230256320680C3050E8001FD1
:1018C00021F0100140E80012002AF5D1E06BFEF78C
:1018D0000BFF6663A08DE18D401A81B22AE0A08DD6
:1018E000E18D401A81B2E08D0028A5D00029A3D057
:1018F00022680C3252E8000F20F4907042E8000792
:10190000002FF5D12068143050E8002F22F001029A
:1019100040E80027002FF5D184F842302563206885
:101920000C3050E8002F22F0100240E80023002B7A
:10193000F5D166632046FFF706FFF8BDFFE7050611
:101940002BD5150629D594F841002128F5D1A0689A
:10195000B0F5805F01D12069B0B1206A411C2162DD
:10196000216800784860E08C401E0004000CE08490
:10197000E3D12068C16821F08001C1602068C1689E
:1019800041F04001C160D8E7206A0088C0F3080038
:101990004860206A801C2062E5E74006CDD55006ED
:1019A000CBD5CA68204622F04002CA6084F8413094
:1019B00000F023F9C1E70000F326000870B5040029
:1019C00004D094F84100002510B106E0012070BD5C
:1019D00084F84050204600F023F8242084F8410089
:1019E0002068C16821F40051C160204600F012FF58
:1019F0002068016921F4904101612068416921F06A
:101A00002A0141612068C16841F40051C1606564E8
:101A1000202084F8410084F842006563002070BDF6
:101A2000F0B587B0044614216846FEF773FC4449BC
:101A3000424F26680023424A1039032402254148B8
:101A4000BE4217D1166846F400261660126802F4EA
:101A5000002205920A6842F001020A6009680293B6
:101A600001F001010591CDE900450821CDE90341CF
:101A7000694643E0DFF8D0C00727664525D1304AE4
:101A8000121D166846F010061660126802F0100269
:101A900005920A6842F001020A60096802AA01F090
:101AA000010105914FF4C061CDE9001582E898006D
:101AB0006946FEF787FE002205212520FFF72AF858
:101AC0002520FFF719F807B0F0BDDFF880C06645A4
:101AD00017D1166846F400361660126802F4003218
:101AE00005920A6842F001020A60096801F00101EA
:101AF00005910C21CDE9001569461BE0FEF762FE59
:101B0000E1E713488642DED1106840F4802010607F
:101B1000106800F480200590086840F0020008601A
:101B20000868694600F0020005904FF44060CDE976
:101B30000005084802AE86E89800DFE7004C004048
:101B400040380240000002400010014000440040C4
:101B5000004800400004024070472DE9F843044665
:101B600090F84100984616460D46202802D00220E3
:101B7000BDE8F88385B17EB100206064212084F83F
:101B80004100FEF729FFA6848146E684A06820274D
:101B9000B0F5805F02D003E00120E9E7206910B1D1
:101BA0002E4600250EE000260CE08021204600F0A5
:101BB000B7FEA8B9C6B116F8010B21684860E08CE1
:101BC000401EE084E08C4B464FF00002CDF80080D0
:101BD0000028EAD14FF04001204600F0A1FE40B1BC
:101BE00084F841700320C3E735F8020BC0F3080006
:101BF000E3E784F841700020BAE77047FEE7000091
:101C00002DE9F04101261D4CF7021D4D4FF480587F
:101C1000012812D0207848B139462846FEF7CAFE7E
:101C200068B141462846FEF7C5FE40B13946284610
:101C3000FEF7C0FE012817D01DE02670ECE7142047
:101C400000F08AFF0020207039462846FEF7B2FED9
:101C500028B141462846FEF7ADFE18B10BE0022040
:101C6000BDE8F0810320FBE741462846FEF7A2FECF
:101C7000012800D126700020F2E700009400002027
:101C8000001002407FB5002415480094019402948E
:101C90001249039401604FF40031C0E90114012599
:101CA0000461057680F820400E49C0E90A14C56138
:101CB000C46080F830404561FEF7BCFC08B1FEF717
:101CC00011FC0C20CDE90005694602940448FEF79A
:101CD0000BFC002801D0FEF705FC7FBD0020014071
:101CE000F80200200100000F10B5B2B01C222749F5
:101CF0006846FEF7F6FA0021684600F08EFF244C95
:101D000022491C2220601C3107A8FEF7EAFA0021B4
:101D100007A800F082FF1D4960601C2238310EA820
:101D2000FEF7DFFA00210EA800F077FF1749A06048
:101D30001C22543115A8FEF7D4FA002115A800F092
:101D40006CFF1249E0601C2270311CA8FEF7C9FA32
:101D500000211CA800F061FF0C4920611C228C317D
:101D600023A8FEF7BEFA002123A800F056FF07497A
:101D700060611C22A8312AA8FEF7B3FA00212AA824
:101D800000F04BFFA06132B010BD0000AC3600087F
:101D9000000000202DE9F04387B014216846FEF7CB
:101DA000B9FA34480026016841F0800101600168F9
:101DB00001F080010591016841F0040101600168B2
:101DC00001F004010591016841F001010160016821
:101DD00001F001010591016841F010010160016805
:101DE00001F010010591016841F0020101600168F4
:101DF00001F002010591016841F0400101600068B5
:101E0000DFF8748000F040004FF402640590002277
:101E100021464046FEF7DBFDDFF860904FF4405767
:101E2000012239464846FEF7D2FD009401240225DE
:101E3000CDE90145694640460395FEF7C3FC78109D
:101E4000CDE90006694602940D48FEF7BBFCA002EE
:101E5000CDE90006694602944046FEF7B3FCCDE9A1
:101E6000007469464846CDE90245FEF7ABFC07B071
:101E7000BDE8F083303802400008024000180240FC
:101E80000010024010B586B0002417480094019459
:101E90000294039404944FF080410594016047211B
:101EA000C0E9011441F28731C0E903148021816146
:101EB000FFF76CF908B1FEF715FB4FF48050009066
:101EC00069460948FFF700FA08B1FEF70BFB0494D6
:101ED00004A905480594FFF711F9002801D0FEF781
:101EE00001FB06B010BD00004003002010B58EB00D
:101EF00000240794089409940A940B941C216846C2
:101F00000C94FEF707FA27482549016040F2CF21DB
:101F1000C0E9011441F28731C0E9031480218161D5
:101F2000FFF734F908B1FEF7DDFA4FF4805007905F
:101F300007A91C48FFF7C8F908B1FEF7D3FA1948FA
:101F4000FFF763FB08B1FEF7CDFA0B940BA9154818
:101F50000C94FFF7D3F808B1FEF7C4FA6020CDE97E
:101F600000040294002269460E480494FFF7E7FA41
:101F700008B1FEF7B7FA0C2269460A48FFF7DFFA04
:101F800008B1FEF7AFFA00210648FFF76DFB0C2100
:101F90000448FFF769FB0348FFF79EFA0EB010BD37
:101FA00000080040880300200C4810B50A49016071
:101FB0004FF4E1314160002181600C22C160C0E931
:101FC00004128161C161FFF7F9FC002803D0BDE86C
:101FD0001040FEF787BA10BD004C0040D00300202F
:101FE0000C4810B50A4901604FF4E131416000210D
:101FF00081600C22C160C0E904128161C161FFF7F8
:10200000DDFC002803D0BDE81040FEF76BBA10BD20
:1020100000100140180400200C4810B50A49016066
:102020004FF4E1314160002181600C22C160C0E9C0
:1020300004128161C161FFF7C1FC002803D0BDE833
:102040001040FEF74FBA10BD00440040600400206D
:102050000C4810B50A4901604FF4E131416000219C
:1020600081600C22C160C0E904128161C161FFF787
:10207000A5FC002803D0BDE81040FEF733BA10BD20
:1020800000480040A8040020FEE7FEE710B50B4C16
:102090000122D1022046FEF79AFC0122202120468F
:1020A000FEF795FC4FF4FA70FEF77AFB204600220B
:1020B000BDE810402021FEF78ABC00000008024065
:1020C00070B50D4D4FF4806421462846FEF772FC32
:1020D000002810D13220FEF763FB21462846FEF788
:1020E00069FC0028F9D02846BDE8704000224FF472
:1020F0000061FEF76CBC70BD000802402DE9F05F86
:102100000020FFF77DFD654942F20F74651048809D
:10211000DFF88CC1A7106349604B40F601564FF4BD
:10212000166E40F2CF7840F2826940F2935A40F244
:10213000E14B41F61F42022802D003286CD09FE0F9
:102140009888401C80B29880012822D002287DD037
:10215000032826D004282BD0052831D0062876D095
:10216000072875D008283BD0092843D040F2E7342F
:102170004FF42F750A2847D00AD300BF4FF00A004A
:102180009880086882620868C462CC600868056448
:1021900076E0086882620868C46240F6AC50CC60A1
:1021A0006CE0086882620868C6627046CE6065E0CE
:1021B000086882620868C76240F2D660CF605DE05E
:1021C000086882620868C0F82C804FF4AF60C1F8DC
:1021D0000C8053E00A68D062C8604FF48C604DE018
:1021E000086882620A68C2F82CB040F25230C1F826
:1021F0000CB043E0086882620A6840F25640D06240
:10220000C86040F2023039E0086882620868C4623F
:10221000CC6008680564B1E79888A0F1010080B23D
:1022200098800128B5D0022817D00328B9D00428F7
:10223000BED00528C4D0062818D007281AD00828F0
:10224000CED00928D6D0A0F57F4502E005E00DE00C
:1022500010E0FF3D19D0C0B112E008688262086842
:10226000C562CD600868C0F840C009E008688262B5
:102270004846AFE7086882625046ABE709680864E1
:10228000BDE8F05F0A20FEF78BBA002098800B684B
:102290009A620A68D462CC60F0E7000094000020E3
:1022A0007011010088030020012000F0AAFCFBE768
:1022B000064D4FF480544FF4FA7621462846FEF737
:1022C0007EFB304600F09DFCF7E70000001802405E
:1022D000012000F096FCFBE7012000F092FCFBE7F8
:1022E000FFF7EEFE142000F08CFCF9E7FFF706FF85
:1022F000FCE70000054D4FF4FA74298804A000F0B3
:1023000051FB204600F07DFCF7E70000980000201C
:102310006EB5C4D6B5CAC7A3BA25640D0A000000BD
:1023200010B5502080F31188BFF34F8FBFF36F8F2C
:1023300001F0F4F818B104494FF080500860002013
:1023400080F3118810BD000004ED00E030B593B0BB
:1023500030216846FDF7DEFF14210CA8FDF7DAFFF7
:102360001C480025016841F080510160006800F0C0
:10237000805011901848016841F480410160006864
:10238000022400F48040119001200090000401908C
:102390008001CDE9064008AA0420482182E8130004
:1023A0000B906846FEF7F2FC08B172B6FEE70CA986
:1023B0000F2081E831004FF48050CDE90F05022154
:1023C0000CA8FEF7D9FB002801D072B6FEE713B0C7
:1023D00030BD0000403802400070004002480168F3
:1023E00041F470010160704788ED00E00148FEF79C
:1023F000DABF0000400300200148FEF7D4BF000010
:10240000880300200148FEF7CEBF0000F004002042
:10241000F0B50268294C2A4D2A4E2B4F2B4B4FF01A
:10242000804CA04209D0604507D0A84205D0B042F8
:1024300003D0B84201D0984204D122F0700E4A680D
:1024400042EA0E02A0421BD0604519D0A84217D024
:10245000B04215D0B84213D0984211D01C4DA842BA
:102460000ED01C4DA8420BD01B4DA84208D01B4DCE
:10247000A84205D01A4DA84202D01A4DA84203D155
:1024800022F44075CA682A434D6922F080022A432B
:1024900002608A68C2620A688262A04201D09842E1
:1024A00001D109690163012141610169C90703D0B3
:1024B000016921F001010161F0BD0000000001404F
:1024C0000004004000080040000C004000040140EF
:1024D0000040014000440140004801400018004015
:1024E000001C00400020004010B501F01F03012136
:1024F000046A99408C430462016A9A401143016264
:1025000010BD10B5846842EA032224F47F440A43D4
:102510002243826010BD826822F070020A4342F0BA
:102520000701816070470000F0B5036A026A22F07B
:102530000102026242688469124E24F073050C683D
:102540002C4323F002058B682B430D4DA84201D08C
:10255000B04205D123F00807CB683B4323F00403C6
:10256000A84201D0B04205D14D6922F44072154312
:102570008A692A4342608461496841630362F0BD0D
:102580000000014000040140F0B5026A036A23F034
:1025900010030362436884690D6824F4E64444EA46
:1025A00005248D6822F0200242EA05120F4D104EDC
:1025B000A84201D0B04206D1CF6822F0800242EAA0
:1025C000071222F04002A84201D0B04207D14D6963
:1025D00023F4406343EA85038D6943EA850343603E
:1025E0008461496881630262F0BD0000000001401F
:1025F00000040140F0B5026A036A23F480730362A9
:102600004368C46922F4007224F073050C68124E0A
:102610002C438D6842EA05220E4DA84201D0B042FB
:1026200006D1CF6822F4006242EA072222F48062D7
:10263000A84201D0B04207D14D6923F4405343EA88
:1026400005138D6943EA05134360C4614968C1639A
:102650000262F0BD000001400004014030B5046A90
:10266000026A22F4805202624268C3690D6823F450
:10267000E64343EA05238D6824F4005444EA053414
:10268000084DA84202D0084DA84204D14D6922F459
:10269000804242EA85124260C36149680164046273
:1026A00030BD0000000001400004014010B5036A85
:1026B000046A24F001040462846924F0F00444EA0A
:1026C000021423F00A020A438461026210BD10B5AD
:1026D000036A046A24F010040462846923F0A003EE
:1026E00024F4704444EA023243EA01118261016237
:1026F00010BD10B5806B0021C185C184FFF724F89F
:1027000010BD01680C3151E8002F22F4907241E8AD
:102710000023002BF5D10168143151E8002F22F07D
:10272000010241E80023002BF5D1016B012909D1F9
:1027300001680C3151E8002F22F0100241E800231B
:10274000002BF5D1202180F8421000210163704751
:1027500008B590F84210222901D0022008BD8268F5
:102760004FF480539A4201D1016921B1816A9A42A2
:102770001BD04AB10AE00268816A5268C2F30802BB
:102780000A80816A891C08E0026972B10268526895
:1027900002F07F020A70816A491C8162C18D491E64
:1027A0000904090CC18503D01BE002685268F1E7F7
:1027B0000168CA6822F02002CA600168CA6822F46F
:1027C0008072CA6001684A6922F001024A612021D0
:1027D00080F8421000214163026B012A03D0FFF709
:1027E000BBF9002008BD016301680C3151E8002FDE
:1027F00022F0100241E80023002BF5D101680A689D
:10280000D20602D50A6849680091818DFEF79BFFC8
:10281000E7E7000070B5044600680169E26821F44A
:102820004051114301612169A068E269084361696F
:10283000114308432168CA6849F20C639A43024372
:10284000CA6020684169A26921F440711143416165
:1028500031492068884202D03049884202D1FEF7CF
:1028600055FA01E0FEF742FAE269002319216425D6
:102870003226B2F5004F626828D0A0FB0101930F09
:102880009200FDF7FDFC0146B0FBF5F06FF0180279
:10289000504301EB800006EB0010B0FBF5F000F0B8
:1028A000F002B1FBF5F002EB0012B1FBF5F06FF0B6
:1028B0001803584301EB800006EB0010B0FBF5F065
:1028C00000F00F0021681044886070BDA0FB01017A
:1028D00092185B41FDF7D4FC0146B0FBF5F0020114
:1028E000B1FBF5F06FF01803584301EB800006EBE5
:1028F000C000B0FBF5F000F0F80002EB4002B1FBC5
:10290000F5F0584301EB800006EBC000B0FBF5F09A
:1029100000F00700D6E7000000100140001401405D
:102920002DE9F843984617460D460446089E24E0D4
:10293000701C22D0FEF750F8A0EB0800B0421AD865
:10294000CEB12068C168490717D5802D15D0402D1C
:1029500013D00168C94309070FD4016800254068F6
:1029600000902046FFF7CDFE0820606484F84050B8
:102970000120BDE8F8830320FBE72068006835EA02
:10298000000004D00020B842D2D00020F1E701209E
:10299000F9E700000148FEF7D9BE00001804002046
:1029A000FEE700000FB4054B10B503A9044A0298D6
:1029B00000F028F810BC5DF814FB0000A92B0008FB
:1029C000A00000200907090E002804DB00F1E02028
:1029D00080F80014704700F00F0000F1E02080F84C
:1029E000141D704702E008C8121F08C1002AFAD15E
:1029F00070477047002001E001C1121F002AFBD17F
:102A0000704700002DE9FF4F89B09B460446002522
:102A100006E025280BD05A460B999047641C6D1C84
:102A200020780028F5D10DB02846BDE8F08F0027AA
:102A3000B8460122474900E0074314F8013F203B14
:102A400002FA03F00842F7D120782E2819D114F8A1
:102A5000010F47F004072A280ED06FF02F022078CC
:102A6000A0F1300109290CD808EB880102EB4101E3
:102A700000EB0108641CF2E70A98641C50F8048B10
:102A80000A9020780028CED0642808D0692806D083
:102A900075281ED05A460B9990476D1C58E00A992C
:102AA0004FF00A0901C90A91002802DA40422D219B
:102AB00002E0390504D52B218DF82010012103E017
:102AC000F90704D02021F7E78A4608AE0DE000217F
:102AD000FAE70A994FF00A0901C90A91F7E749464E
:102AE000FDF723FC303106F8011D0028F7D1ADEBCE
:102AF000060000F12009780701D44FF00108C8450D
:102B000002DDA8EB090000E000208046002706E077
:102B100008A85A46C05D0B9990476D1C7F1C57450D
:102B2000F6DB04E030205A460B9990476D1CB8F153
:102B30000001A8F10108F5DC05E016F8010B5A4682
:102B40000B9990476D1CB9F10001A9F10109F4DC62
:102B5000641C65E70928010070B5054600244FF4A0
:102B60007A7603E0304600F005F8641CAC42F9D3F5
:102B700070BD000070B54FF0E0240022656909497E
:102B8000A36909684843A1699942FCD002D2A3EB2A
:102B9000010302E0A5EB010633441A440B468242CE
:102BA000F1D370BD9C00002013B54FF47A7301225D
:102BB00069460248FEF7D1FF00981CBD18040020AA
:102BC000FDF718FFFFF7C2FBFFF7E4F8FFF7ECF99A
:102BD000FFF706FAFFF720FAFFF73AFAFFF786F950
:102BE000FFF750F8FFF74EF9FFF750FAFFF77CF8C0
:102BF00000F00EF8FEE701460020842900D0C81C32
:102C0000704710B500B9012000F024FB002010BD72
:102C100010B500F045FB002010BD7FB50D46044601
:102C20004169B0F9080081B1A16971B1FFF7E3FF13
:102C3000D4E905128DE80700D4E900102B4622697B
:102C400000F041FC039004B070BDFFF7D4FF03A96E
:102C5000CDE90001208A2B4682B2D4E9001000F0B1
:102C600005FC012801D00020EDE70398EBE7000008
:102C70002DE9F041184C0F460546E6682068001D16
:102C800000F020FA38B9206890F82C100120884014
:102C9000216981432161681C07D137B12168BDE8F2
:102CA000F0410E48091D00F051BA20683544B54284
:102CB0004560216805D2A06BBDE8F041091D00F018
:102CC0002DBA606B091D00F029FAA06A854200D276
:102CD000A562BDE8F08100002C0000201406002051
:102CE0002DE9F041054600F03DFA2E4CA068401C4D
:102CF000A06020682C4F10B1606940B32DE02560C2
:102D0000A068012829D1002606EB860007EB800089
:102D100000F0F6F9761C072EF6D323488C3000F02D
:102D2000EFF92148A03000F0EBF91F48B43000F073
:102D3000E7F91D48C83000F0E3F91B48DC3000F02B
:102D4000DFF919488C3060631430A06305E0206817
:102D5000E96AC06A884200D82560606A401C6062E7
:102D6000E96A0120226988401043206101EB81005B
:102D700007EB8000291D00F0E9F900F013FA606903
:102D800000280CD02068E96AC06A884207D2074947
:102D90004FF080500860BFF34F8FBFF36F8FBDE8D7
:102DA000F08100002C0000203805002004ED00E038
:102DB00010B5044690F8510058B101280CD00228F3
:102DC0000FD0502080F31188BFF34F8FBFF36F8F68
:102DD000FEE7206B00F0FAF92046BDE8104000F055
:102DE000F5B910BD10484FF47051420706D0C01D10
:102DF0000D4920F00700411AC1F570510B4A00231C
:102E00000144C2E900030839183A21F007011160B2
:102E10004B600B600B1AC0E9001393604FF0004049
:102E20005360506170470000280600208000002099
:102E3000144E154CA6F1C8074FF08058DFF84C909F
:102E400012E000BF00F08EF9F068C568281D00F0A0
:102E500039F9A068401EA0606068401E606000F004
:102E6000A1F92846FFF7A4FF60680028EAD1386876
:102E70000128F9D9C9F80080BFF34F8FBFF36F8FD6
:102E8000F2E70000000600202C00002004ED00E026
:102E90002DE9F0479A46DDE9098481466FF0030386
:102EA000206B03EB82021044089E20F0070778078E
:102EB00007D0502080F31188BFF34F8FBFF36F8F7F
:102EC000FEE7002561B1002023180A5C83F8342056
:102ED0000A5C12B1401C1028F6D384F8435001E07C
:102EE00084F83450072E00D30626E662C4E9116543
:102EF000201D00F010F904F1180000F00CF9246115
:102F0000C6F107006462A061E56484F8505052463F
:102F10004946384600F0C0F82060B8F1000F01D0F3
:102F2000C8F80040BDE8F08730B5114900E011460F
:102F30000A688242FBD34B685C18844203D1406824
:102F400018444860084643681C18944209D1084C4C
:102F5000183C2468A24209D052681A4442600A68A8
:102F600012680260814200D0086030BD0460F9E759
:102F7000800000200648416B096829B1416BC9688F
:102F8000C9684968816270474FF0FF31FAE7000075
:102F90002C00002008484068401C4FF0500080F38F
:102FA000118804D0BFF34F8FBFF36F8FFEE7BFF3DD
:102FB0004F8FBFF36F8FFEE7880000202DE9F041AF
:102FC0000546002700F0A2F9324E306808B9FFF735
:102FD00009FF706905424ED1C5B3083568070ED0A8
:102FE00005F00700C0F108000544680707D050202D
:102FF00080F31188BFF34F8FBFF36F8FFEE72DB3C0
:103000007068854237D82348183001460C6801E0C3
:1030100020460C466168A94202D221680029F7D1F6
:1030200031688C4227D007682168016060680837E2
:10303000411B10290FD96019420708D0502080F396
:103040001188BFF34F8FBFF36F8FFEE713E041602E
:103050006560FFF769FF61687068401A7060B26868
:10306000904200D2B060706901430020C4E90001C1
:10307000F068401CF06000F0B7FA780707D05020E5
:1030800080F31188BFF34F8FBFF36F8FFEE7384691
:10309000BDE8F0816800002010B5031F4FF0807478
:1030A0001C601B1F21F001011960191F044B0B60EC
:1030B00014390A60091F6FF0020244380A6010BD1B
:1030C000952F0008D0E9013201699A60D0E9012307
:1030D0005A604A68824201D182684A6000220261D5
:1030E0000868401E0860086870470000034B0360D2
:1030F00003F154000860802010607047A400002095
:1031000000F108014FF0FF32C0E90112C160016116
:1031100000210160704700210161704730B50B68E4
:103120005A1C02D000F1080202E0026904E02246C3
:10313000546825689D42FAD953684B6099608A604B
:10314000516008610168491C016030BD42684A60F5
:1031500093688B6093685960916008610168491CAD
:1031600001607047502080F31188BFF34F8FBFF389
:103170006F8F0A494868401C486001280CD10848F4
:10318000006810F0FF0F07D0502080F31188BFF3C4
:103190004F8FBFF36F8FFEE770470000880000205D
:1031A00004ED00E00849486828B1401E486001D19C
:1031B00080F311887047502080F31188BFF34F8F40
:1031C000BFF36F8FFEE700008800002070B5002875
:1031D0002AD0164DA0F1080460686969084207D139
:1031E000502080F31188BFF34F8FBFF36F8FFEE73E
:1031F00022683AB1502080F31188BFF34F8FBFF39C
:103200006F8FFEE78843606000F080F8606869684F
:10321000084468602046FFF787FE2869401C286143
:10322000BDE8704000F0E0B970BD0000680000200B
:103230004FF0E02000210161816105494FF47A726D
:103240000968B1FBF2F1491E416107210161704734
:103250002800002010B5020014D00F48006B38B1D0
:10326000502080F31188BFF34F8FBFF36F8FFEE7BD
:1032700000F04CF800211046FFF7FAFC00F0B4F91A
:10328000002807D105494FF080500860BFF34F8FE9
:10329000BFF36F8F10BD00002C00002004ED00E094
:1032A00010B586B00024039405AA04A903A80494C9
:1032B000FFF71CFFDDE903010094CDE901100023B5
:1032C0000EA11048059A00F0FEF80F490028C862C8
:1032D00011D0502080F31188BFF34F8FBFF36F8F51
:1032E0004FF0FF30886201204861CC6006B0BDE835
:1032F000104000F041B806B010BD000049444C45F4
:1033000000000000312E00082C0000200248016B54
:10331000491C0163704700002C0000201448016B19
:1033200011B10121C16170470021C1610169B1FA88
:1033300081F1C1F11F0101EB81020E4951F82230E8
:103340006BB101EB820101F108034A6852684A60DF
:103350009A4201D152684A60D1680160704750209A
:1033600080F31188BFF34F8FBFF36F8FFEE700002C
:103370002C000020380500201CB537480168374A6A
:10338000914207D1502080F31188BFF34F8FBFF3D4
:103390006F8FFEE700683149491E884207D15020EF
:1033A00080F31188BFF34F8FBFF36F8FFEE72C4977
:1033B00008780190FF20087008788DF800009DF8CB
:1033C00000009DF8002000F0F000904207D050204F
:1033D00080F31188BFF34F8FBFF36F8FFEE79DF827
:1033E0000000204C00F0500020700720A06005E095
:1033F0009DF8002052008DF80020401E9DF800200E
:103400001206F5D4A060032807D0502080F311885D
:10341000BFF34F8FBFF36F8FFEE74FF44070A06094
:10342000019808700C482030016841F47001016077
:10343000016841F070410160FFF7FAFE0020606012
:10344000FCF7D0FE0848016841F040410160FCF7FC
:10345000B5FE00201CBD000000ED00E071C20F4170
:1034600000E400E08800002034EF00E02DE9FF5F79
:103470008346DDE90E87994616468A469000FFF797
:103480009DFD05001CD05420FFF798FD040014D0CA
:103490000020256384F85100CDE90240CDE9008782
:1034A0004B46324651465846FFF7F2FC2046FFF79E
:1034B00017FC012004B0BDE8F09F2846FFF786FE08
:1034C0004FF0FF30F6E7F0B585B0DDE90B640A9DFB
:1034D000A6B1DCB1542700972663022684F8516018
:1034E000002604AFCDE90246CDE90057FFF7D0FC36
:1034F0002046FFF7F5FB049805B0F0BD502080F39F
:103500001188BFF34F8FBFF36F8FFEE7502080F31A
:103510001188BFF34F8FBFF36F8FFEE72DE9F041A6
:103520002F4C0026206B28B1A069401CA0613046BA
:10353000BDE8F081E5686D1CE56013D1606B006843
:1035400038B1502080F31188BFF34F8FBFF36F8FD6
:10355000FEE7606BA16B6163A063206A401C206280
:10356000FFF708FDA06ADFF87C80854209D3606B15
:103570000068A0B1606BC068C7687868854211D2E6
:10358000A0622068C06A00EB800158F82100012881
:1035900000D90126E0690028C9D00126C7E74FF00D
:1035A000FF30EDE7381DFFF78DFDB86A18B107F160
:1035B0001800FFF787FDF96A01202269884010434F
:1035C000206101EB810108EB8100391DFFF7BEFD91
:1035D000F86A2168C96A8842C9D30126C7E7000092
:1035E0002C000020380500202DE9F0472C4D002448
:1035F0002746286B38B1FFF7B5FD286B401E2863BE
:10360000286B40B146E0502080F31188BFF34F8F04
:10361000BFF36F8FFEE7A968224E0120D1B3A6F158
:10362000B40980463068E8B1F068C46804F1180055
:10363000FFF748FD201DFFF745FDE06A2A6908FAFB
:1036400000F11143296100EB800109EB8100211D8C
:10365000FFF77CFDE06A2968C96A8842E2D3C5F8B1
:103660001C80DFE70CB1FFF785FCAC6944B146462E
:10367000FFF754FF00B1EE61641EF9D10020A8618C
:10368000E86938B10849012738070860BFF34F8F50
:10369000BFF36F8FFFF786FD3846BDE8F087000067
:1036A0002C000020EC05002004ED00E0B0370008FD
:1036B000E12200080000000000000000800000007F
:1036C0000000000000000000BC370008B122000824
:1036D000FDFF00000000000080000000000000006E
:1036E0000000000098370008D1220008FDFF00000C
:1036F000000000008000000000000000000000004A
:10370000A4370008A9220008FDFF00000000000007
:103710008000000000000000000000008837000862
:10372000D9220008FDFF000000000000800000001A
:103730000000000000000000C8370008F522000863
:10374000FDFF0000000000008000000000000000FD
:1037500000000000D4370008ED220008FDFF000043
:1037600000000000800000000000000000000000D9
:103770000000000000000000010203040607080921
:1037800000000000010203044E54435F4233393508
:10379000305F5461736B00004C45445F5461736B40
:1037A0000000000046414E5F5461736B0000000052
:1037B0005057525F5461736B000000004B45595FD6
:1037C0005461736B000000006865617465725F543A
:1037D00061736B00536F6C656E6F69645F61646ADF
:1037E0005F487A000438000800000020A4000000B0
:1037F000E4290008A8380008A4000020844500003F
:10380000F429000800000000000000000000000093
:1038100000000000000000000000000000000000A8
:103820000100000010000000000000000024F4006F
:103830000000000000000000000000000000000088
:103840000000000000000000000000000000000078
:103850000000000000000000000000000000000068
:103860000000000000000000000000000000000058
:103870000000000000000000000000000000000048
:103880000000000000000000000000000000000038
:10389000AAAAAAAA0000000001000000000000007F
:0838A000000000000000000020
:040000050800018965
:00000001FF
